{
  "_format": "hh-sol-artifact-1",
  "contractName": "BuyMyRoom",
  "sourceName": "contracts/BuyMyRoom.sol",
  "abi": [
    {
      "inputs": [
        {
          "internalType": "address",
          "name": "myPoints_",
          "type": "address"
        },
        {
          "internalType": "uint256",
          "name": "fee_",
          "type": "uint256"
        }
      ],
      "stateMutability": "nonpayable",
      "type": "constructor"
    },
    {
      "inputs": [
        {
          "internalType": "address",
          "name": "sender",
          "type": "address"
        },
        {
          "internalType": "uint256",
          "name": "tokenId",
          "type": "uint256"
        },
        {
          "internalType": "address",
          "name": "owner",
          "type": "address"
        }
      ],
      "name": "ERC721IncorrectOwner",
      "type": "error"
    },
    {
      "inputs": [
        {
          "internalType": "address",
          "name": "operator",
          "type": "address"
        },
        {
          "internalType": "uint256",
          "name": "tokenId",
          "type": "uint256"
        }
      ],
      "name": "ERC721InsufficientApproval",
      "type": "error"
    },
    {
      "inputs": [
        {
          "internalType": "address",
          "name": "approver",
          "type": "address"
        }
      ],
      "name": "ERC721InvalidApprover",
      "type": "error"
    },
    {
      "inputs": [
        {
          "internalType": "address",
          "name": "operator",
          "type": "address"
        }
      ],
      "name": "ERC721InvalidOperator",
      "type": "error"
    },
    {
      "inputs": [
        {
          "internalType": "address",
          "name": "owner",
          "type": "address"
        }
      ],
      "name": "ERC721InvalidOwner",
      "type": "error"
    },
    {
      "inputs": [
        {
          "internalType": "address",
          "name": "receiver",
          "type": "address"
        }
      ],
      "name": "ERC721InvalidReceiver",
      "type": "error"
    },
    {
      "inputs": [
        {
          "internalType": "address",
          "name": "sender",
          "type": "address"
        }
      ],
      "name": "ERC721InvalidSender",
      "type": "error"
    },
    {
      "inputs": [
        {
          "internalType": "uint256",
          "name": "tokenId",
          "type": "uint256"
        }
      ],
      "name": "ERC721NonexistentToken",
      "type": "error"
    },
    {
      "anonymous": false,
      "inputs": [
        {
          "indexed": true,
          "internalType": "address",
          "name": "owner",
          "type": "address"
        },
        {
          "indexed": true,
          "internalType": "address",
          "name": "approved",
          "type": "address"
        },
        {
          "indexed": true,
          "internalType": "uint256",
          "name": "tokenId",
          "type": "uint256"
        }
      ],
      "name": "Approval",
      "type": "event"
    },
    {
      "anonymous": false,
      "inputs": [
        {
          "indexed": true,
          "internalType": "address",
          "name": "owner",
          "type": "address"
        },
        {
          "indexed": true,
          "internalType": "address",
          "name": "operator",
          "type": "address"
        },
        {
          "indexed": false,
          "internalType": "bool",
          "name": "approved",
          "type": "bool"
        }
      ],
      "name": "ApprovalForAll",
      "type": "event"
    },
    {
      "anonymous": false,
      "inputs": [
        {
          "indexed": false,
          "internalType": "uint256",
          "name": "tokenId",
          "type": "uint256"
        },
        {
          "indexed": false,
          "internalType": "uint256",
          "name": "price",
          "type": "uint256"
        },
        {
          "indexed": false,
          "internalType": "address",
          "name": "owner",
          "type": "address"
        }
      ],
      "name": "HouseListed",
      "type": "event"
    },
    {
      "anonymous": false,
      "inputs": [
        {
          "indexed": false,
          "internalType": "uint256",
          "name": "tokenId",
          "type": "uint256"
        },
        {
          "indexed": false,
          "internalType": "uint256",
          "name": "price",
          "type": "uint256"
        },
        {
          "indexed": false,
          "internalType": "address",
          "name": "newOwner",
          "type": "address"
        }
      ],
      "name": "HouseSold",
      "type": "event"
    },
    {
      "anonymous": false,
      "inputs": [
        {
          "indexed": true,
          "internalType": "address",
          "name": "from",
          "type": "address"
        },
        {
          "indexed": true,
          "internalType": "address",
          "name": "to",
          "type": "address"
        },
        {
          "indexed": true,
          "internalType": "uint256",
          "name": "tokenId",
          "type": "uint256"
        }
      ],
      "name": "Transfer",
      "type": "event"
    },
    {
      "inputs": [
        {
          "internalType": "address",
          "name": "to",
          "type": "address"
        },
        {
          "internalType": "uint256",
          "name": "tokenId",
          "type": "uint256"
        }
      ],
      "name": "approve",
      "outputs": [],
      "stateMutability": "nonpayable",
      "type": "function"
    },
    {
      "inputs": [
        {
          "internalType": "address",
          "name": "owner",
          "type": "address"
        }
      ],
      "name": "balanceOf",
      "outputs": [
        {
          "internalType": "uint256",
          "name": "",
          "type": "uint256"
        }
      ],
      "stateMutability": "view",
      "type": "function"
    },
    {
      "inputs": [
        {
          "internalType": "uint256",
          "name": "tokenID",
          "type": "uint256"
        }
      ],
      "name": "buyHouse",
      "outputs": [],
      "stateMutability": "nonpayable",
      "type": "function"
    },
    {
      "inputs": [
        {
          "internalType": "address",
          "name": "",
          "type": "address"
        }
      ],
      "name": "firstHouse_",
      "outputs": [
        {
          "internalType": "uint256",
          "name": "",
          "type": "uint256"
        }
      ],
      "stateMutability": "view",
      "type": "function"
    },
    {
      "inputs": [],
      "name": "getAllHouse",
      "outputs": [
        {
          "components": [
            {
              "internalType": "uint256",
              "name": "id",
              "type": "uint256"
            },
            {
              "internalType": "uint256",
              "name": "listedTimestamp",
              "type": "uint256"
            },
            {
              "internalType": "uint256",
              "name": "price",
              "type": "uint256"
            },
            {
              "internalType": "string",
              "name": "owner",
              "type": "string"
            },
            {
              "internalType": "bool",
              "name": "selling",
              "type": "bool"
            },
            {
              "internalType": "string",
              "name": "discription",
              "type": "string"
            }
          ],
          "internalType": "struct BuyMyRoom.HouseInfo[]",
          "name": "",
          "type": "tuple[]"
        }
      ],
      "stateMutability": "view",
      "type": "function"
    },
    {
      "inputs": [
        {
          "internalType": "uint256",
          "name": "tokenId",
          "type": "uint256"
        }
      ],
      "name": "getApproved",
      "outputs": [
        {
          "internalType": "address",
          "name": "",
          "type": "address"
        }
      ],
      "stateMutability": "view",
      "type": "function"
    },
    {
      "inputs": [
        {
          "internalType": "uint256",
          "name": "tokenID",
          "type": "uint256"
        }
      ],
      "name": "getHouseDiscription",
      "outputs": [
        {
          "internalType": "string",
          "name": "",
          "type": "string"
        }
      ],
      "stateMutability": "view",
      "type": "function"
    },
    {
      "inputs": [
        {
          "internalType": "uint256",
          "name": "tokenID",
          "type": "uint256"
        }
      ],
      "name": "getHouseListedTimeStamp",
      "outputs": [
        {
          "internalType": "uint256",
          "name": "",
          "type": "uint256"
        }
      ],
      "stateMutability": "view",
      "type": "function"
    },
    {
      "inputs": [
        {
          "internalType": "uint256",
          "name": "tokenID",
          "type": "uint256"
        }
      ],
      "name": "getHouseOwner",
      "outputs": [
        {
          "internalType": "address",
          "name": "",
          "type": "address"
        }
      ],
      "stateMutability": "view",
      "type": "function"
    },
    {
      "inputs": [
        {
          "internalType": "uint256",
          "name": "tokenID",
          "type": "uint256"
        }
      ],
      "name": "getHousePrice",
      "outputs": [
        {
          "internalType": "uint256",
          "name": "",
          "type": "uint256"
        }
      ],
      "stateMutability": "view",
      "type": "function"
    },
    {
      "inputs": [],
      "name": "getHouses",
      "outputs": [
        {
          "components": [
            {
              "internalType": "uint256",
              "name": "id",
              "type": "uint256"
            },
            {
              "internalType": "uint256",
              "name": "listedTimestamp",
              "type": "uint256"
            },
            {
              "internalType": "uint256",
              "name": "price",
              "type": "uint256"
            },
            {
              "internalType": "string",
              "name": "owner",
              "type": "string"
            },
            {
              "internalType": "bool",
              "name": "selling",
              "type": "bool"
            },
            {
              "internalType": "string",
              "name": "discription",
              "type": "string"
            }
          ],
          "internalType": "struct BuyMyRoom.HouseInfo[]",
          "name": "",
          "type": "tuple[]"
        }
      ],
      "stateMutability": "view",
      "type": "function"
    },
    {
      "inputs": [
        {
          "internalType": "uint256",
          "name": "tokenID",
          "type": "uint256"
        }
      ],
      "name": "getSellingFee",
      "outputs": [
        {
          "internalType": "uint256",
          "name": "",
          "type": "uint256"
        }
      ],
      "stateMutability": "view",
      "type": "function"
    },
    {
      "inputs": [
        {
          "internalType": "uint256",
          "name": "",
          "type": "uint256"
        }
      ],
      "name": "house_",
      "outputs": [
        {
          "internalType": "uint256",
          "name": "listedTimestamp",
          "type": "uint256"
        },
        {
          "internalType": "uint256",
          "name": "price",
          "type": "uint256"
        },
        {
          "internalType": "bool",
          "name": "selling",
          "type": "bool"
        },
        {
          "internalType": "string",
          "name": "discription",
          "type": "string"
        }
      ],
      "stateMutability": "view",
      "type": "function"
    },
    {
      "inputs": [
        {
          "internalType": "address",
          "name": "owner",
          "type": "address"
        },
        {
          "internalType": "address",
          "name": "operator",
          "type": "address"
        }
      ],
      "name": "isApprovedForAll",
      "outputs": [
        {
          "internalType": "bool",
          "name": "",
          "type": "bool"
        }
      ],
      "stateMutability": "view",
      "type": "function"
    },
    {
      "inputs": [
        {
          "internalType": "uint256",
          "name": "tokenID",
          "type": "uint256"
        },
        {
          "internalType": "uint256",
          "name": "price",
          "type": "uint256"
        }
      ],
      "name": "listHouse",
      "outputs": [],
      "stateMutability": "nonpayable",
      "type": "function"
    },
    {
      "inputs": [],
      "name": "name",
      "outputs": [
        {
          "internalType": "string",
          "name": "",
          "type": "string"
        }
      ],
      "stateMutability": "view",
      "type": "function"
    },
    {
      "inputs": [
        {
          "internalType": "uint256",
          "name": "tokenId",
          "type": "uint256"
        }
      ],
      "name": "ownerOf",
      "outputs": [
        {
          "internalType": "address",
          "name": "",
          "type": "address"
        }
      ],
      "stateMutability": "view",
      "type": "function"
    },
    {
      "inputs": [],
      "name": "releaseNewHouse",
      "outputs": [],
      "stateMutability": "nonpayable",
      "type": "function"
    },
    {
      "inputs": [
        {
          "internalType": "address",
          "name": "from",
          "type": "address"
        },
        {
          "internalType": "address",
          "name": "to",
          "type": "address"
        },
        {
          "internalType": "uint256",
          "name": "tokenId",
          "type": "uint256"
        }
      ],
      "name": "safeTransferFrom",
      "outputs": [],
      "stateMutability": "nonpayable",
      "type": "function"
    },
    {
      "inputs": [
        {
          "internalType": "address",
          "name": "from",
          "type": "address"
        },
        {
          "internalType": "address",
          "name": "to",
          "type": "address"
        },
        {
          "internalType": "uint256",
          "name": "tokenId",
          "type": "uint256"
        },
        {
          "internalType": "bytes",
          "name": "data",
          "type": "bytes"
        }
      ],
      "name": "safeTransferFrom",
      "outputs": [],
      "stateMutability": "nonpayable",
      "type": "function"
    },
    {
      "inputs": [
        {
          "internalType": "address",
          "name": "operator",
          "type": "address"
        },
        {
          "internalType": "bool",
          "name": "approved",
          "type": "bool"
        }
      ],
      "name": "setApprovalForAll",
      "outputs": [],
      "stateMutability": "nonpayable",
      "type": "function"
    },
    {
      "inputs": [
        {
          "internalType": "bytes4",
          "name": "interfaceId",
          "type": "bytes4"
        }
      ],
      "name": "supportsInterface",
      "outputs": [
        {
          "internalType": "bool",
          "name": "",
          "type": "bool"
        }
      ],
      "stateMutability": "view",
      "type": "function"
    },
    {
      "inputs": [],
      "name": "symbol",
      "outputs": [
        {
          "internalType": "string",
          "name": "",
          "type": "string"
        }
      ],
      "stateMutability": "view",
      "type": "function"
    },
    {
      "inputs": [
        {
          "internalType": "address",
          "name": "account",
          "type": "address"
        }
      ],
      "name": "toString",
      "outputs": [
        {
          "internalType": "string",
          "name": "",
          "type": "string"
        }
      ],
      "stateMutability": "pure",
      "type": "function"
    },
    {
      "inputs": [
        {
          "internalType": "bytes",
          "name": "data",
          "type": "bytes"
        }
      ],
      "name": "toString",
      "outputs": [
        {
          "internalType": "string",
          "name": "",
          "type": "string"
        }
      ],
      "stateMutability": "pure",
      "type": "function"
    },
    {
      "inputs": [
        {
          "internalType": "uint256",
          "name": "tokenId",
          "type": "uint256"
        }
      ],
      "name": "tokenURI",
      "outputs": [
        {
          "internalType": "string",
          "name": "",
          "type": "string"
        }
      ],
      "stateMutability": "view",
      "type": "function"
    },
    {
      "inputs": [
        {
          "internalType": "address",
          "name": "from",
          "type": "address"
        },
        {
          "internalType": "address",
          "name": "to",
          "type": "address"
        },
        {
          "internalType": "uint256",
          "name": "tokenId",
          "type": "uint256"
        }
      ],
      "name": "transferFrom",
      "outputs": [],
      "stateMutability": "nonpayable",
      "type": "function"
    }
  ],
  "bytecode": "0x60806040523480156200001157600080fd5b5060405162003fb838038062003fb8833981810160405281019062000037919062000207565b6040518060400160405280600481526020017f484e4654000000000000000000000000000000000000000000000000000000008152506040518060400160405280600281526020017f484e0000000000000000000000000000000000000000000000000000000000008152508160009081620000b49190620004be565b508060019081620000c69190620004be565b505050600060088190555033600960006101000a81548173ffffffffffffffffffffffffffffffffffffffff021916908373ffffffffffffffffffffffffffffffffffffffff16021790555081600b60006101000a81548173ffffffffffffffffffffffffffffffffffffffff021916908373ffffffffffffffffffffffffffffffffffffffff16021790555080600a819055505050620005a5565b600080fd5b600073ffffffffffffffffffffffffffffffffffffffff82169050919050565b6000620001948262000167565b9050919050565b620001a68162000187565b8114620001b257600080fd5b50565b600081519050620001c6816200019b565b92915050565b6000819050919050565b620001e181620001cc565b8114620001ed57600080fd5b50565b6000815190506200020181620001d6565b92915050565b6000806040838503121562000221576200022062000162565b5b60006200023185828601620001b5565b92505060206200024485828601620001f0565b9150509250929050565b600081519050919050565b7f4e487b7100000000000000000000000000000000000000000000000000000000600052604160045260246000fd5b7f4e487b7100000000000000000000000000000000000000000000000000000000600052602260045260246000fd5b60006002820490506001821680620002d057607f821691505b602082108103620002e657620002e562000288565b5b50919050565b60008190508160005260206000209050919050565b60006020601f8301049050919050565b600082821b905092915050565b600060088302620003507fffffffffffffffffffffffffffffffffffffffffffffffffffffffffffffffff8262000311565b6200035c868362000311565b95508019841693508086168417925050509392505050565b6000819050919050565b60006200039f620003996200039384620001cc565b62000374565b620001cc565b9050919050565b6000819050919050565b620003bb836200037e565b620003d3620003ca82620003a6565b8484546200031e565b825550505050565b600090565b620003ea620003db565b620003f7818484620003b0565b505050565b5b818110156200041f5762000413600082620003e0565b600181019050620003fd565b5050565b601f8211156200046e576200043881620002ec565b620004438462000301565b8101602085101562000453578190505b6200046b620004628562000301565b830182620003fc565b50505b505050565b600082821c905092915050565b6000620004936000198460080262000473565b1980831691505092915050565b6000620004ae838362000480565b9150826002028217905092915050565b620004c9826200024e565b67ffffffffffffffff811115620004e557620004e462000259565b5b620004f18254620002b7565b620004fe82828562000423565b600060209050601f83116001811462000536576000841562000521578287015190505b6200052d8582620004a0565b8655506200059d565b601f1984166200054686620002ec565b60005b82811015620005705784890151825560018201915060208501945060208101905062000549565b868310156200059057848901516200058c601f89168262000480565b8355505b6001600288020188555050505b505050505050565b613a0380620005b56000396000f3fe608060405234801561001057600080fd5b50600436106101a95760003560e01c806370a08231116100f9578063c87b56dd11610097578063e985e9c511610071578063e985e9c51461052d578063eddc42691461055d578063fd5f33ec14610579578063ffe0749014610597576101a9565b8063c87b56dd146104af578063cd654eca146104df578063e7e95ada146104fd576101a9565b806399b23178116100d357806399b231781461042b578063a22cb46514610447578063b88d4fde14610463578063bc8857bb1461047f576101a9565b806370a08231146103ad57806371aad10d146103dd57806395d89b411461040d576101a9565b806325a320821161016657806342842e0e1161014057806342842e0e1461030157806356ca623e1461031d5780636352211e1461034d5780636cd515d91461037d576101a9565b806325a32082146102945780632cbd71fa1461029e578063415a0eba146102d1576101a9565b806301ffc9a7146101ae57806302fe614d146101de57806306fdde031461020e578063081812fc1461022c578063095ea7b31461025c57806323b872dd14610278575b600080fd5b6101c860048036038101906101c39190612a7f565b6105c7565b6040516101d59190612ac7565b60405180910390f35b6101f860048036038101906101f39190612b40565b6106a9565b6040516102059190612b86565b60405180910390f35b6102166106c1565b6040516102239190612c31565b60405180910390f35b61024660048036038101906102419190612c7f565b610753565b6040516102539190612cbb565b60405180910390f35b61027660048036038101906102719190612cd6565b61076f565b005b610292600480360381019061028d9190612d16565b610785565b005b61029c610887565b005b6102b860048036038101906102b39190612c7f565b61090e565b6040516102c89493929190612d69565b60405180910390f35b6102eb60048036038101906102e69190612c7f565b6109d3565b6040516102f89190612b86565b60405180910390f35b61031b60048036038101906103169190612d16565b6109f3565b005b61033760048036038101906103329190612b40565b610a13565b6040516103449190612c31565b60405180910390f35b61036760048036038101906103629190612c7f565b610a44565b6040516103749190612cbb565b60405180910390f35b61039760048036038101906103929190612c7f565b610a56565b6040516103a49190612b86565b60405180910390f35b6103c760048036038101906103c29190612b40565b610af6565b6040516103d49190612b86565b60405180910390f35b6103f760048036038101906103f29190612eea565b610bb0565b6040516104049190612c31565b60405180910390f35b610415610eaa565b6040516104229190612c31565b60405180910390f35b61044560048036038101906104409190612f33565b610f3c565b005b610461600480360381019061045c9190612f9f565b611013565b005b61047d60048036038101906104789190612fdf565b611029565b005b61049960048036038101906104949190612c7f565b611046565b6040516104a69190612b86565b60405180910390f35b6104c960048036038101906104c49190612c7f565b611066565b6040516104d69190612c31565b60405180910390f35b6104e76110cf565b6040516104f4919061321c565b60405180910390f35b61051760048036038101906105129190612c7f565b6113c7565b6040516105249190612cbb565b60405180910390f35b6105476004803603810190610542919061323e565b6113d9565b6040516105549190612ac7565b60405180910390f35b61057760048036038101906105729190612c7f565b61146d565b005b6105816117ca565b60405161058e919061321c565b60405180910390f35b6105b160048036038101906105ac9190612c7f565b611a85565b6040516105be9190612c31565b60405180910390f35b60007f80ac58cd000000000000000000000000000000000000000000000000000000007bffffffffffffffffffffffffffffffffffffffffffffffffffffffff1916827bffffffffffffffffffffffffffffffffffffffffffffffffffffffff1916148061069257507f5b5e139f000000000000000000000000000000000000000000000000000000007bffffffffffffffffffffffffffffffffffffffffffffffffffffffff1916827bffffffffffffffffffffffffffffffffffffffffffffffffffffffff1916145b806106a257506106a182611b2d565b5b9050919050565b60076020528060005260406000206000915090505481565b6060600080546106d0906132ad565b80601f01602080910402602001604051908101604052809291908181526020018280546106fc906132ad565b80156107495780601f1061071e57610100808354040283529160200191610749565b820191906000526020600020905b81548152906001019060200180831161072c57829003601f168201915b5050505050905090565b600061075e82611b97565b5061076882611c1f565b9050919050565b610781828261077c611c5c565b611c64565b5050565b600073ffffffffffffffffffffffffffffffffffffffff168273ffffffffffffffffffffffffffffffffffffffff16036107f75760006040517f64a0ae920000000000000000000000000000000000000000000000000000000081526004016107ee9190612cbb565b60405180910390fd5b600061080b8383610806611c5c565b611c76565b90508373ffffffffffffffffffffffffffffffffffffffff168173ffffffffffffffffffffffffffffffffffffffff1614610881578382826040517f64283d7b000000000000000000000000000000000000000000000000000000008152600401610878939291906132de565b60405180910390fd5b50505050565b61089333600854611e90565b600060066000600854815260200190815260200160002060020160006101000a81548160ff0219169083151502179055506108cf600854611f89565b60066000600854815260200190815260200160002060030190816108f391906134c1565b5060086000815480929190610907906135c2565b9190505550565b60066020528060005260406000206000915090508060000154908060010154908060020160009054906101000a900460ff1690806003018054610950906132ad565b80601f016020809104026020016040519081016040528092919081815260200182805461097c906132ad565b80156109c95780601f1061099e576101008083540402835291602001916109c9565b820191906000526020600020905b8154815290600101906020018083116109ac57829003601f168201915b5050505050905084565b600060066000838152602001908152602001600020600101549050919050565b610a0e83838360405180602001604052806000815250611029565b505050565b6060610a3d82604051602001610a299190613652565b604051602081830303815290604052610bb0565b9050919050565b6000610a4f82611b97565b9050919050565b60006006600083815260200190815260200160002060020160009054906101000a900460ff16610a8557600080fd5b6000600660008481526020019081526020016000206001015490506000620f424082600a54600660008881526020019081526020016000206000015442610acc919061366d565b610ad691906136a1565b610ae091906136a1565b610aea9190613712565b90508092505050919050565b60008073ffffffffffffffffffffffffffffffffffffffff168273ffffffffffffffffffffffffffffffffffffffff1603610b695760006040517f89c62b64000000000000000000000000000000000000000000000000000000008152600401610b609190612cbb565b60405180910390fd5b600360008373ffffffffffffffffffffffffffffffffffffffff1673ffffffffffffffffffffffffffffffffffffffff168152602001908152602001600020549050919050565b606060006040518060400160405280601081526020017f30313233343536373839616263646566000000000000000000000000000000008152509050600060028451610bfc91906136a1565b6002610c089190613743565b67ffffffffffffffff811115610c2157610c20612dbf565b5b6040519080825280601f01601f191660200182016040528015610c535781602001600182028036833780820191505090505b5090507f300000000000000000000000000000000000000000000000000000000000000081600081518110610c8b57610c8a613777565b5b60200101907effffffffffffffffffffffffffffffffffffffffffffffffffffffffffffff1916908160001a9053507f780000000000000000000000000000000000000000000000000000000000000081600181518110610cef57610cee613777565b5b60200101907effffffffffffffffffffffffffffffffffffffffffffffffffffffffffffff1916908160001a90535060005b8451811015610e9f57826004868381518110610d4057610d3f613777565b5b602001015160f81c60f81b7effffffffffffffffffffffffffffffffffffffffffffffffffffffffffffff1916901c60f81c60ff1681518110610d8657610d85613777565b5b602001015160f81c60f81b82600283610d9f91906136a1565b6002610dab9190613743565b81518110610dbc57610dbb613777565b5b60200101907effffffffffffffffffffffffffffffffffffffffffffffffffffffffffffff1916908160001a90535082600f60f81b868381518110610e0457610e03613777565b5b602001015160f81c60f81b1660f81c60ff1681518110610e2757610e26613777565b5b602001015160f81c60f81b82600283610e4091906136a1565b6003610e4c9190613743565b81518110610e5d57610e5c613777565b5b60200101907effffffffffffffffffffffffffffffffffffffffffffffffffffffffffffff1916908160001a9053508080610e97906135c2565b915050610d21565b508092505050919050565b606060018054610eb9906132ad565b80601f0160208091040260200160405190810160405280929190818152602001828054610ee5906132ad565b8015610f325780601f10610f0757610100808354040283529160200191610f32565b820191906000526020600020905b815481529060010190602001808311610f1557829003601f168201915b5050505050905090565b3373ffffffffffffffffffffffffffffffffffffffff16610f5c83610a44565b73ffffffffffffffffffffffffffffffffffffffff1614610f7c57600080fd5b6006600083815260200190815260200160002060020160009054906101000a900460ff1615610faa57600080fd5b80600660008481526020019081526020016000206001018190555060016006600084815260200190815260200160002060020160006101000a81548160ff0219169083151502179055504260066000848152602001908152602001600020600001819055505050565b61102561101e611c5c565b8383612057565b5050565b611034848484610785565b611040848484846121c6565b50505050565b600060066000838152602001908152602001600020600001549050919050565b606061107182611b97565b50600061107c61237d565b9050600081511161109c57604051806020016040528060008152506110c7565b806110a684611f89565b6040516020016110b79291906137e2565b6040516020818303038152906040525b915050919050565b60606000805b60085481101561112a576006600082815260200190815260200160002060020160009054906101000a900460ff1615611117578180611113906135c2565b9250505b8080611122906135c2565b9150506110d5565b5060008167ffffffffffffffff81111561114757611146612dbf565b5b60405190808252806020026020018201604052801561118057816020015b61116d6129db565b8152602001906001900390816111655790505b5090506000915060005b6008548110156113be576006600082815260200190815260200160002060020160009054906101000a900460ff16156113ab57808284815181106111d1576111d0613777565b5b6020026020010151600001818152505060006111ec82610a44565b90506111f781610a13565b83858151811061120a57611209613777565b5b602002602001015160600181905250600660008381526020019081526020016000206000015483858151811061124357611242613777565b5b60200260200101516020018181525050600660008381526020019081526020016000206001015483858151811061127d5761127c613777565b5b602002602001015160400181815250506006600083815260200190815260200160002060020160009054906101000a900460ff168385815181106112c4576112c3613777565b5b602002602001015160800190151590811515815250506006600083815260200190815260200160002060030180546112fb906132ad565b80601f0160208091040260200160405190810160405280929190818152602001828054611327906132ad565b80156113745780601f1061134957610100808354040283529160200191611374565b820191906000526020600020905b81548152906001019060200180831161135757829003601f168201915b505050505083858151811061138c5761138b613777565b5b602002602001015160a0018190525083806113a6906135c2565b945050505b80806113b6906135c2565b91505061118a565b50809250505090565b60006113d282610a44565b9050919050565b6000600560008473ffffffffffffffffffffffffffffffffffffffff1673ffffffffffffffffffffffffffffffffffffffff16815260200190815260200160002060008373ffffffffffffffffffffffffffffffffffffffff1673ffffffffffffffffffffffffffffffffffffffff16815260200190815260200160002060009054906101000a900460ff16905092915050565b6006600082815260200190815260200160002060020160009054906101000a900460ff1661149a57600080fd5b60006114a582610a44565b90506000600660008481526020019081526020016000206001015490506000620f424082600a546006600088815260200190815260200160002060000154426114ee919061366d565b6114f891906136a1565b61150291906136a1565b61150c9190613712565b90506000818361151c919061366d565b905082600b60009054906101000a900473ffffffffffffffffffffffffffffffffffffffff1673ffffffffffffffffffffffffffffffffffffffff166370a08231336040518263ffffffff1660e01b815260040161157a9190612cbb565b602060405180830381865afa158015611597573d6000803e3d6000fd5b505050506040513d601f19601f820116820180604052508101906115bb919061381b565b10156115c657600080fd5b600b60009054906101000a900473ffffffffffffffffffffffffffffffffffffffff1673ffffffffffffffffffffffffffffffffffffffff166323b872dd3386846040518463ffffffff1660e01b815260040161162593929190613848565b6020604051808303816000875af1158015611644573d6000803e3d6000fd5b505050506040513d601f19601f820116820180604052508101906116689190613894565b50600b60009054906101000a900473ffffffffffffffffffffffffffffffffffffffff1673ffffffffffffffffffffffffffffffffffffffff166323b872dd33600960009054906101000a900473ffffffffffffffffffffffffffffffffffffffff16856040518463ffffffff1660e01b81526004016116ea93929190613848565b6020604051808303816000875af1158015611709573d6000803e3d6000fd5b505050506040513d601f19601f8201168201806040525081019061172d9190613894565b5060006006600087815260200190815260200160002060020160006101000a81548160ff021916908315150217905550611768843387612394565b843373ffffffffffffffffffffffffffffffffffffffff168573ffffffffffffffffffffffffffffffffffffffff167fddf252ad1be2c89b69c2b068fc378daa952ba7f163c4a11628f55a4df523b3ef60405160405180910390a45050505050565b60606000806117d833610af6565b905060008167ffffffffffffffff8111156117f6576117f5612dbf565b5b60405190808252806020026020018201604052801561182f57816020015b61181c6129db565b8152602001906001900390816118145790505b50905060005b600854811015611a7b573373ffffffffffffffffffffffffffffffffffffffff1661185f82610a44565b73ffffffffffffffffffffffffffffffffffffffff1603611a68578082858151811061188e5761188d613777565b5b6020026020010151600001818152505060006118a982610a44565b90506118b481610a13565b8386815181106118c7576118c6613777565b5b6020026020010151606001819052506006600083815260200190815260200160002060000154838681518110611900576118ff613777565b5b60200260200101516020018181525050600660008381526020019081526020016000206001015483868151811061193a57611939613777565b5b602002602001015160400181815250506006600083815260200190815260200160002060020160009054906101000a900460ff1683868151811061198157611980613777565b5b602002602001015160800190151590811515815250506006600083815260200190815260200160002060030180546119b8906132ad565b80601f01602080910402602001604051908101604052809291908181526020018280546119e4906132ad565b8015611a315780601f10611a0657610100808354040283529160200191611a31565b820191906000526020600020905b815481529060010190602001808311611a1457829003601f168201915b5050505050838681518110611a4957611a48613777565b5b602002602001015160a001819052508480611a63906135c2565b955050505b8080611a73906135c2565b915050611835565b5080935050505090565b6060600660008381526020019081526020016000206003018054611aa8906132ad565b80601f0160208091040260200160405190810160405280929190818152602001828054611ad4906132ad565b8015611b215780601f10611af657610100808354040283529160200191611b21565b820191906000526020600020905b815481529060010190602001808311611b0457829003601f168201915b50505050509050919050565b60007f01ffc9a7000000000000000000000000000000000000000000000000000000007bffffffffffffffffffffffffffffffffffffffffffffffffffffffff1916827bffffffffffffffffffffffffffffffffffffffffffffffffffffffff1916149050919050565b600080611ba383612501565b9050600073ffffffffffffffffffffffffffffffffffffffff168173ffffffffffffffffffffffffffffffffffffffff1603611c1657826040517f7e273289000000000000000000000000000000000000000000000000000000008152600401611c0d9190612b86565b60405180910390fd5b80915050919050565b60006004600083815260200190815260200160002060009054906101000a900473ffffffffffffffffffffffffffffffffffffffff169050919050565b600033905090565b611c71838383600161253e565b505050565b600080611c8284612501565b9050600073ffffffffffffffffffffffffffffffffffffffff168373ffffffffffffffffffffffffffffffffffffffff1614611cc457611cc3818486612703565b5b600073ffffffffffffffffffffffffffffffffffffffff168173ffffffffffffffffffffffffffffffffffffffff1614611d5557611d0660008560008061253e565b6001600360008373ffffffffffffffffffffffffffffffffffffffff1673ffffffffffffffffffffffffffffffffffffffff168152602001908152602001600020600082825403925050819055505b600073ffffffffffffffffffffffffffffffffffffffff168573ffffffffffffffffffffffffffffffffffffffff1614611dd8576001600360008773ffffffffffffffffffffffffffffffffffffffff1673ffffffffffffffffffffffffffffffffffffffff168152602001908152602001600020600082825401925050819055505b846002600086815260200190815260200160002060006101000a81548173ffffffffffffffffffffffffffffffffffffffff021916908373ffffffffffffffffffffffffffffffffffffffff160217905550838573ffffffffffffffffffffffffffffffffffffffff168273ffffffffffffffffffffffffffffffffffffffff167fddf252ad1be2c89b69c2b068fc378daa952ba7f163c4a11628f55a4df523b3ef60405160405180910390a4809150509392505050565b600073ffffffffffffffffffffffffffffffffffffffff168273ffffffffffffffffffffffffffffffffffffffff1603611f025760006040517f64a0ae92000000000000000000000000000000000000000000000000000000008152600401611ef99190612cbb565b60405180910390fd5b6000611f1083836000611c76565b9050600073ffffffffffffffffffffffffffffffffffffffff168173ffffffffffffffffffffffffffffffffffffffff1614611f845760006040517f73c6ac6e000000000000000000000000000000000000000000000000000000008152600401611f7b9190612cbb565b60405180910390fd5b505050565b606060006001611f98846127c7565b01905060008167ffffffffffffffff811115611fb757611fb6612dbf565b5b6040519080825280601f01601f191660200182016040528015611fe95781602001600182028036833780820191505090505b509050600082602001820190505b60011561204c578080600190039150507f3031323334353637383961626364656600000000000000000000000000000000600a86061a8153600a85816120405761203f6136e3565b5b04945060008503611ff7575b819350505050919050565b600073ffffffffffffffffffffffffffffffffffffffff168273ffffffffffffffffffffffffffffffffffffffff16036120c857816040517f5b08ba180000000000000000000000000000000000000000000000000000000081526004016120bf9190612cbb565b60405180910390fd5b80600560008573ffffffffffffffffffffffffffffffffffffffff1673ffffffffffffffffffffffffffffffffffffffff16815260200190815260200160002060008473ffffffffffffffffffffffffffffffffffffffff1673ffffffffffffffffffffffffffffffffffffffff16815260200190815260200160002060006101000a81548160ff0219169083151502179055508173ffffffffffffffffffffffffffffffffffffffff168373ffffffffffffffffffffffffffffffffffffffff167f17307eab39ab6107e8899845ad3d59bd9653f200f220920489ca2b5937696c31836040516121b99190612ac7565b60405180910390a3505050565b60008373ffffffffffffffffffffffffffffffffffffffff163b1115612377578273ffffffffffffffffffffffffffffffffffffffff1663150b7a0261220a611c5c565b8685856040518563ffffffff1660e01b815260040161222c9493929190613916565b6020604051808303816000875af192505050801561226857506040513d601f19601f820116820180604052508101906122659190613977565b60015b6122ec573d8060008114612298576040519150601f19603f3d011682016040523d82523d6000602084013e61229d565b606091505b5060008151036122e457836040517f64a0ae920000000000000000000000000000000000000000000000000000000081526004016122db9190612cbb565b60405180910390fd5b805181602001fd5b63150b7a0260e01b7bffffffffffffffffffffffffffffffffffffffffffffffffffffffff1916817bffffffffffffffffffffffffffffffffffffffffffffffffffffffff19161461237557836040517f64a0ae9200000000000000000000000000000000000000000000000000000000815260040161236c9190612cbb565b60405180910390fd5b505b50505050565b606060405180602001604052806000815250905090565b600073ffffffffffffffffffffffffffffffffffffffff168273ffffffffffffffffffffffffffffffffffffffff16036124065760006040517f64a0ae920000000000000000000000000000000000000000000000000000000081526004016123fd9190612cbb565b60405180910390fd5b600061241483836000611c76565b9050600073ffffffffffffffffffffffffffffffffffffffff168173ffffffffffffffffffffffffffffffffffffffff160361248757816040517f7e27328900000000000000000000000000000000000000000000000000000000815260040161247e9190612b86565b60405180910390fd5b8373ffffffffffffffffffffffffffffffffffffffff168173ffffffffffffffffffffffffffffffffffffffff16146124fb578382826040517f64283d7b0000000000000000000000000000000000000000000000000000000081526004016124f2939291906132de565b60405180910390fd5b50505050565b60006002600083815260200190815260200160002060009054906101000a900473ffffffffffffffffffffffffffffffffffffffff169050919050565b80806125775750600073ffffffffffffffffffffffffffffffffffffffff168273ffffffffffffffffffffffffffffffffffffffff1614155b156126ab57600061258784611b97565b9050600073ffffffffffffffffffffffffffffffffffffffff168373ffffffffffffffffffffffffffffffffffffffff16141580156125f257508273ffffffffffffffffffffffffffffffffffffffff168173ffffffffffffffffffffffffffffffffffffffff1614155b8015612605575061260381846113d9565b155b1561264757826040517fa9fbf51f00000000000000000000000000000000000000000000000000000000815260040161263e9190612cbb565b60405180910390fd5b81156126a957838573ffffffffffffffffffffffffffffffffffffffff168273ffffffffffffffffffffffffffffffffffffffff167f8c5be1e5ebec7d5bd14f71427d1e84f3dd0314c0f7b2291e5b200ac8c7c3b92560405160405180910390a45b505b836004600085815260200190815260200160002060006101000a81548173ffffffffffffffffffffffffffffffffffffffff021916908373ffffffffffffffffffffffffffffffffffffffff16021790555050505050565b61270e83838361291a565b6127c257600073ffffffffffffffffffffffffffffffffffffffff168373ffffffffffffffffffffffffffffffffffffffff160361278357806040517f7e27328900000000000000000000000000000000000000000000000000000000815260040161277a9190612b86565b60405180910390fd5b81816040517f177e802f0000000000000000000000000000000000000000000000000000000081526004016127b99291906139a4565b60405180910390fd5b505050565b600080600090507a184f03e93ff9f4daa797ed6e38ed64bf6a1f0100000000000000008310612825577a184f03e93ff9f4daa797ed6e38ed64bf6a1f010000000000000000838161281b5761281a6136e3565b5b0492506040810190505b6d04ee2d6d415b85acef81000000008310612862576d04ee2d6d415b85acef81000000008381612858576128576136e3565b5b0492506020810190505b662386f26fc10000831061289157662386f26fc100008381612887576128866136e3565b5b0492506010810190505b6305f5e10083106128ba576305f5e10083816128b0576128af6136e3565b5b0492506008810190505b61271083106128df5761271083816128d5576128d46136e3565b5b0492506004810190505b6064831061290257606483816128f8576128f76136e3565b5b0492506002810190505b600a8310612911576001810190505b80915050919050565b60008073ffffffffffffffffffffffffffffffffffffffff168373ffffffffffffffffffffffffffffffffffffffff16141580156129d257508273ffffffffffffffffffffffffffffffffffffffff168473ffffffffffffffffffffffffffffffffffffffff161480612993575061299284846113d9565b5b806129d157508273ffffffffffffffffffffffffffffffffffffffff166129b983611c1f565b73ffffffffffffffffffffffffffffffffffffffff16145b5b90509392505050565b6040518060c0016040528060008152602001600081526020016000815260200160608152602001600015158152602001606081525090565b6000604051905090565b600080fd5b600080fd5b60007fffffffff0000000000000000000000000000000000000000000000000000000082169050919050565b612a5c81612a27565b8114612a6757600080fd5b50565b600081359050612a7981612a53565b92915050565b600060208284031215612a9557612a94612a1d565b5b6000612aa384828501612a6a565b91505092915050565b60008115159050919050565b612ac181612aac565b82525050565b6000602082019050612adc6000830184612ab8565b92915050565b600073ffffffffffffffffffffffffffffffffffffffff82169050919050565b6000612b0d82612ae2565b9050919050565b612b1d81612b02565b8114612b2857600080fd5b50565b600081359050612b3a81612b14565b92915050565b600060208284031215612b5657612b55612a1d565b5b6000612b6484828501612b2b565b91505092915050565b6000819050919050565b612b8081612b6d565b82525050565b6000602082019050612b9b6000830184612b77565b92915050565b600081519050919050565b600082825260208201905092915050565b60005b83811015612bdb578082015181840152602081019050612bc0565b60008484015250505050565b6000601f19601f8301169050919050565b6000612c0382612ba1565b612c0d8185612bac565b9350612c1d818560208601612bbd565b612c2681612be7565b840191505092915050565b60006020820190508181036000830152612c4b8184612bf8565b905092915050565b612c5c81612b6d565b8114612c6757600080fd5b50565b600081359050612c7981612c53565b92915050565b600060208284031215612c9557612c94612a1d565b5b6000612ca384828501612c6a565b91505092915050565b612cb581612b02565b82525050565b6000602082019050612cd06000830184612cac565b92915050565b60008060408385031215612ced57612cec612a1d565b5b6000612cfb85828601612b2b565b9250506020612d0c85828601612c6a565b9150509250929050565b600080600060608486031215612d2f57612d2e612a1d565b5b6000612d3d86828701612b2b565b9350506020612d4e86828701612b2b565b9250506040612d5f86828701612c6a565b9150509250925092565b6000608082019050612d7e6000830187612b77565b612d8b6020830186612b77565b612d986040830185612ab8565b8181036060830152612daa8184612bf8565b905095945050505050565b600080fd5b600080fd5b7f4e487b7100000000000000000000000000000000000000000000000000000000600052604160045260246000fd5b612df782612be7565b810181811067ffffffffffffffff82111715612e1657612e15612dbf565b5b80604052505050565b6000612e29612a13565b9050612e358282612dee565b919050565b600067ffffffffffffffff821115612e5557612e54612dbf565b5b612e5e82612be7565b9050602081019050919050565b82818337600083830152505050565b6000612e8d612e8884612e3a565b612e1f565b905082815260208101848484011115612ea957612ea8612dba565b5b612eb4848285612e6b565b509392505050565b600082601f830112612ed157612ed0612db5565b5b8135612ee1848260208601612e7a565b91505092915050565b600060208284031215612f0057612eff612a1d565b5b600082013567ffffffffffffffff811115612f1e57612f1d612a22565b5b612f2a84828501612ebc565b91505092915050565b60008060408385031215612f4a57612f49612a1d565b5b6000612f5885828601612c6a565b9250506020612f6985828601612c6a565b9150509250929050565b612f7c81612aac565b8114612f8757600080fd5b50565b600081359050612f9981612f73565b92915050565b60008060408385031215612fb657612fb5612a1d565b5b6000612fc485828601612b2b565b9250506020612fd585828601612f8a565b9150509250929050565b60008060008060808587031215612ff957612ff8612a1d565b5b600061300787828801612b2b565b945050602061301887828801612b2b565b935050604061302987828801612c6a565b925050606085013567ffffffffffffffff81111561304a57613049612a22565b5b61305687828801612ebc565b91505092959194509250565b600081519050919050565b600082825260208201905092915050565b6000819050602082019050919050565b61309781612b6d565b82525050565b600082825260208201905092915050565b60006130b982612ba1565b6130c3818561309d565b93506130d3818560208601612bbd565b6130dc81612be7565b840191505092915050565b6130f081612aac565b82525050565b600060c08301600083015161310e600086018261308e565b506020830151613121602086018261308e565b506040830151613134604086018261308e565b506060830151848203606086015261314c82826130ae565b915050608083015161316160808601826130e7565b5060a083015184820360a086015261317982826130ae565b9150508091505092915050565b600061319283836130f6565b905092915050565b6000602082019050919050565b60006131b282613062565b6131bc818561306d565b9350836020820285016131ce8561307e565b8060005b8581101561320a57848403895281516131eb8582613186565b94506131f68361319a565b925060208a019950506001810190506131d2565b50829750879550505050505092915050565b6000602082019050818103600083015261323681846131a7565b905092915050565b6000806040838503121561325557613254612a1d565b5b600061326385828601612b2b565b925050602061327485828601612b2b565b9150509250929050565b7f4e487b7100000000000000000000000000000000000000000000000000000000600052602260045260246000fd5b600060028204905060018216806132c557607f821691505b6020821081036132d8576132d761327e565b5b50919050565b60006060820190506132f36000830186612cac565b6133006020830185612b77565b61330d6040830184612cac565b949350505050565b60008190508160005260206000209050919050565b60006020601f8301049050919050565b600082821b905092915050565b6000600883026133777fffffffffffffffffffffffffffffffffffffffffffffffffffffffffffffffff8261333a565b613381868361333a565b95508019841693508086168417925050509392505050565b6000819050919050565b60006133be6133b96133b484612b6d565b613399565b612b6d565b9050919050565b6000819050919050565b6133d8836133a3565b6133ec6133e4826133c5565b848454613347565b825550505050565b600090565b6134016133f4565b61340c8184846133cf565b505050565b5b81811015613430576134256000826133f9565b600181019050613412565b5050565b601f8211156134755761344681613315565b61344f8461332a565b8101602085101561345e578190505b61347261346a8561332a565b830182613411565b50505b505050565b600082821c905092915050565b60006134986000198460080261347a565b1980831691505092915050565b60006134b18383613487565b9150826002028217905092915050565b6134ca82612ba1565b67ffffffffffffffff8111156134e3576134e2612dbf565b5b6134ed82546132ad565b6134f8828285613434565b600060209050601f83116001811461352b5760008415613519578287015190505b61352385826134a5565b86555061358b565b601f19841661353986613315565b60005b828110156135615784890151825560018201915060208501945060208101905061353c565b8683101561357e578489015161357a601f891682613487565b8355505b6001600288020188555050505b505050505050565b7f4e487b7100000000000000000000000000000000000000000000000000000000600052601160045260246000fd5b60006135cd82612b6d565b91507fffffffffffffffffffffffffffffffffffffffffffffffffffffffffffffffff82036135ff576135fe613593565b5b600182019050919050565b60008160601b9050919050565b60006136228261360a565b9050919050565b600061363482613617565b9050919050565b61364c61364782612b02565b613629565b82525050565b600061365e828461363b565b60148201915081905092915050565b600061367882612b6d565b915061368383612b6d565b925082820390508181111561369b5761369a613593565b5b92915050565b60006136ac82612b6d565b91506136b783612b6d565b92508282026136c581612b6d565b915082820484148315176136dc576136db613593565b5b5092915050565b7f4e487b7100000000000000000000000000000000000000000000000000000000600052601260045260246000fd5b600061371d82612b6d565b915061372883612b6d565b925082613738576137376136e3565b5b828204905092915050565b600061374e82612b6d565b915061375983612b6d565b925082820190508082111561377157613770613593565b5b92915050565b7f4e487b7100000000000000000000000000000000000000000000000000000000600052603260045260246000fd5b600081905092915050565b60006137bc82612ba1565b6137c681856137a6565b93506137d6818560208601612bbd565b80840191505092915050565b60006137ee82856137b1565b91506137fa82846137b1565b91508190509392505050565b60008151905061381581612c53565b92915050565b60006020828403121561383157613830612a1d565b5b600061383f84828501613806565b91505092915050565b600060608201905061385d6000830186612cac565b61386a6020830185612cac565b6138776040830184612b77565b949350505050565b60008151905061388e81612f73565b92915050565b6000602082840312156138aa576138a9612a1d565b5b60006138b88482850161387f565b91505092915050565b600081519050919050565b600082825260208201905092915050565b60006138e8826138c1565b6138f281856138cc565b9350613902818560208601612bbd565b61390b81612be7565b840191505092915050565b600060808201905061392b6000830187612cac565b6139386020830186612cac565b6139456040830185612b77565b818103606083015261395781846138dd565b905095945050505050565b60008151905061397181612a53565b92915050565b60006020828403121561398d5761398c612a1d565b5b600061399b84828501613962565b91505092915050565b60006040820190506139b96000830185612cac565b6139c66020830184612b77565b939250505056fea264697066735822122084f46ea1c1a3403abdd089384a9a8eac0e6d7dcc48f053b1d3fced72503faf0164736f6c63430008140033",
  "linkReferences": {},
  "deployedLinkReferences": {}
}