{
  "_format": "hh-sol-artifact-1",
  "contractName": "Trade",
  "sourceName": "contracts/Trade.sol",
  "abi": [
    {
      "inputs": [
        {
          "internalType": "address",
          "name": "_token1",
          "type": "address"
        }
      ],
      "stateMutability": "nonpayable",
      "type": "constructor"
    },
    {
      "inputs": [
        {
          "internalType": "address",
          "name": "spender",
          "type": "address"
        },
        {
          "internalType": "uint256",
          "name": "allowance",
          "type": "uint256"
        },
        {
          "internalType": "uint256",
          "name": "needed",
          "type": "uint256"
        }
      ],
      "name": "ERC20InsufficientAllowance",
      "type": "error"
    },
    {
      "inputs": [
        {
          "internalType": "address",
          "name": "sender",
          "type": "address"
        },
        {
          "internalType": "uint256",
          "name": "balance",
          "type": "uint256"
        },
        {
          "internalType": "uint256",
          "name": "needed",
          "type": "uint256"
        }
      ],
      "name": "ERC20InsufficientBalance",
      "type": "error"
    },
    {
      "inputs": [
        {
          "internalType": "address",
          "name": "approver",
          "type": "address"
        }
      ],
      "name": "ERC20InvalidApprover",
      "type": "error"
    },
    {
      "inputs": [
        {
          "internalType": "address",
          "name": "receiver",
          "type": "address"
        }
      ],
      "name": "ERC20InvalidReceiver",
      "type": "error"
    },
    {
      "inputs": [
        {
          "internalType": "address",
          "name": "sender",
          "type": "address"
        }
      ],
      "name": "ERC20InvalidSender",
      "type": "error"
    },
    {
      "inputs": [
        {
          "internalType": "address",
          "name": "spender",
          "type": "address"
        }
      ],
      "name": "ERC20InvalidSpender",
      "type": "error"
    },
    {
      "anonymous": false,
      "inputs": [
        {
          "indexed": true,
          "internalType": "address",
          "name": "owner",
          "type": "address"
        },
        {
          "indexed": true,
          "internalType": "address",
          "name": "spender",
          "type": "address"
        },
        {
          "indexed": false,
          "internalType": "uint256",
          "name": "value",
          "type": "uint256"
        }
      ],
      "name": "Approval",
      "type": "event"
    },
    {
      "anonymous": false,
      "inputs": [
        {
          "indexed": true,
          "internalType": "address",
          "name": "sender",
          "type": "address"
        },
        {
          "indexed": false,
          "internalType": "uint256",
          "name": "amount0",
          "type": "uint256"
        },
        {
          "indexed": false,
          "internalType": "uint256",
          "name": "amount1",
          "type": "uint256"
        }
      ],
      "name": "Burn",
      "type": "event"
    },
    {
      "anonymous": false,
      "inputs": [
        {
          "indexed": true,
          "internalType": "address",
          "name": "sender",
          "type": "address"
        },
        {
          "indexed": false,
          "internalType": "uint256",
          "name": "amount0",
          "type": "uint256"
        },
        {
          "indexed": false,
          "internalType": "uint256",
          "name": "amount1",
          "type": "uint256"
        }
      ],
      "name": "Mint",
      "type": "event"
    },
    {
      "anonymous": false,
      "inputs": [
        {
          "indexed": true,
          "internalType": "address",
          "name": "from",
          "type": "address"
        },
        {
          "indexed": true,
          "internalType": "address",
          "name": "to",
          "type": "address"
        },
        {
          "indexed": false,
          "internalType": "uint256",
          "name": "value",
          "type": "uint256"
        }
      ],
      "name": "Transfer",
      "type": "event"
    },
    {
      "inputs": [],
      "name": "ChangeETHtoErc20",
      "outputs": [
        {
          "internalType": "uint256",
          "name": "amountOut",
          "type": "uint256"
        }
      ],
      "stateMutability": "payable",
      "type": "function"
    },
    {
      "inputs": [
        {
          "internalType": "uint256",
          "name": "amountIn",
          "type": "uint256"
        }
      ],
      "name": "ChangeErc20toETH",
      "outputs": [
        {
          "internalType": "uint256",
          "name": "amountOut",
          "type": "uint256"
        }
      ],
      "stateMutability": "nonpayable",
      "type": "function"
    },
    {
      "inputs": [
        {
          "internalType": "uint256",
          "name": "amount1Desired",
          "type": "uint256"
        }
      ],
      "name": "addLiquidity",
      "outputs": [
        {
          "internalType": "uint256",
          "name": "liquidity",
          "type": "uint256"
        }
      ],
      "stateMutability": "payable",
      "type": "function"
    },
    {
      "inputs": [
        {
          "internalType": "address",
          "name": "owner",
          "type": "address"
        },
        {
          "internalType": "address",
          "name": "spender",
          "type": "address"
        }
      ],
      "name": "allowance",
      "outputs": [
        {
          "internalType": "uint256",
          "name": "",
          "type": "uint256"
        }
      ],
      "stateMutability": "view",
      "type": "function"
    },
    {
      "inputs": [
        {
          "internalType": "address",
          "name": "spender",
          "type": "address"
        },
        {
          "internalType": "uint256",
          "name": "value",
          "type": "uint256"
        }
      ],
      "name": "approve",
      "outputs": [
        {
          "internalType": "bool",
          "name": "",
          "type": "bool"
        }
      ],
      "stateMutability": "nonpayable",
      "type": "function"
    },
    {
      "inputs": [
        {
          "internalType": "address",
          "name": "account",
          "type": "address"
        }
      ],
      "name": "balanceOf",
      "outputs": [
        {
          "internalType": "uint256",
          "name": "",
          "type": "uint256"
        }
      ],
      "stateMutability": "view",
      "type": "function"
    },
    {
      "inputs": [],
      "name": "decimals",
      "outputs": [
        {
          "internalType": "uint8",
          "name": "",
          "type": "uint8"
        }
      ],
      "stateMutability": "view",
      "type": "function"
    },
    {
      "inputs": [
        {
          "internalType": "uint256",
          "name": "amountIn",
          "type": "uint256"
        }
      ],
      "name": "eTHToErc20Amount",
      "outputs": [
        {
          "internalType": "uint256",
          "name": "amountOut",
          "type": "uint256"
        }
      ],
      "stateMutability": "view",
      "type": "function"
    },
    {
      "inputs": [
        {
          "internalType": "uint256",
          "name": "amountIn",
          "type": "uint256"
        }
      ],
      "name": "erc20ToETHAmount",
      "outputs": [
        {
          "internalType": "uint256",
          "name": "amountOut",
          "type": "uint256"
        }
      ],
      "stateMutability": "view",
      "type": "function"
    },
    {
      "inputs": [
        {
          "internalType": "uint256",
          "name": "amountIn",
          "type": "uint256"
        },
        {
          "internalType": "uint256",
          "name": "reserveIn",
          "type": "uint256"
        },
        {
          "internalType": "uint256",
          "name": "reserveOut",
          "type": "uint256"
        }
      ],
      "name": "getAmountOut",
      "outputs": [
        {
          "internalType": "uint256",
          "name": "amountOut",
          "type": "uint256"
        }
      ],
      "stateMutability": "pure",
      "type": "function"
    },
    {
      "inputs": [],
      "name": "name",
      "outputs": [
        {
          "internalType": "string",
          "name": "",
          "type": "string"
        }
      ],
      "stateMutability": "view",
      "type": "function"
    },
    {
      "inputs": [],
      "name": "reserve0",
      "outputs": [
        {
          "internalType": "uint256",
          "name": "",
          "type": "uint256"
        }
      ],
      "stateMutability": "view",
      "type": "function"
    },
    {
      "inputs": [],
      "name": "reserve1",
      "outputs": [
        {
          "internalType": "uint256",
          "name": "",
          "type": "uint256"
        }
      ],
      "stateMutability": "view",
      "type": "function"
    },
    {
      "inputs": [],
      "name": "symbol",
      "outputs": [
        {
          "internalType": "string",
          "name": "",
          "type": "string"
        }
      ],
      "stateMutability": "view",
      "type": "function"
    },
    {
      "inputs": [],
      "name": "token1",
      "outputs": [
        {
          "internalType": "contract MyERC20",
          "name": "",
          "type": "address"
        }
      ],
      "stateMutability": "view",
      "type": "function"
    },
    {
      "inputs": [],
      "name": "totalSupply",
      "outputs": [
        {
          "internalType": "uint256",
          "name": "",
          "type": "uint256"
        }
      ],
      "stateMutability": "view",
      "type": "function"
    },
    {
      "inputs": [
        {
          "internalType": "address",
          "name": "to",
          "type": "address"
        },
        {
          "internalType": "uint256",
          "name": "value",
          "type": "uint256"
        }
      ],
      "name": "transfer",
      "outputs": [
        {
          "internalType": "bool",
          "name": "",
          "type": "bool"
        }
      ],
      "stateMutability": "nonpayable",
      "type": "function"
    },
    {
      "inputs": [
        {
          "internalType": "address",
          "name": "from",
          "type": "address"
        },
        {
          "internalType": "address",
          "name": "to",
          "type": "address"
        },
        {
          "internalType": "uint256",
          "name": "value",
          "type": "uint256"
        }
      ],
      "name": "transferFrom",
      "outputs": [
        {
          "internalType": "bool",
          "name": "",
          "type": "bool"
        }
      ],
      "stateMutability": "nonpayable",
      "type": "function"
    }
  ],
  "bytecode": "0x60806040523480156200001157600080fd5b50604051620021df380380620021df83398181016040528101906200003791906200017b565b6040518060400160405280600a81526020017f53696d706c6553776170000000000000000000000000000000000000000000008152506040518060400160405280600281526020017f53530000000000000000000000000000000000000000000000000000000000008152508160039081620000b4919062000427565b508060049081620000c6919062000427565b50505080600560006101000a81548173ffffffffffffffffffffffffffffffffffffffff021916908373ffffffffffffffffffffffffffffffffffffffff160217905550506200050e565b600080fd5b600073ffffffffffffffffffffffffffffffffffffffff82169050919050565b6000620001438262000116565b9050919050565b620001558162000136565b81146200016157600080fd5b50565b60008151905062000175816200014a565b92915050565b60006020828403121562000194576200019362000111565b5b6000620001a48482850162000164565b91505092915050565b600081519050919050565b7f4e487b7100000000000000000000000000000000000000000000000000000000600052604160045260246000fd5b7f4e487b7100000000000000000000000000000000000000000000000000000000600052602260045260246000fd5b600060028204905060018216806200022f57607f821691505b602082108103620002455762000244620001e7565b5b50919050565b60008190508160005260206000209050919050565b60006020601f8301049050919050565b600082821b905092915050565b600060088302620002af7fffffffffffffffffffffffffffffffffffffffffffffffffffffffffffffffff8262000270565b620002bb868362000270565b95508019841693508086168417925050509392505050565b6000819050919050565b6000819050919050565b60006200030862000302620002fc84620002d3565b620002dd565b620002d3565b9050919050565b6000819050919050565b6200032483620002e7565b6200033c62000333826200030f565b8484546200027d565b825550505050565b600090565b6200035362000344565b6200036081848462000319565b505050565b5b8181101562000388576200037c60008262000349565b60018101905062000366565b5050565b601f821115620003d757620003a1816200024b565b620003ac8462000260565b81016020851015620003bc578190505b620003d4620003cb8562000260565b83018262000365565b50505b505050565b600082821c905092915050565b6000620003fc60001984600802620003dc565b1980831691505092915050565b6000620004178383620003e9565b9150826002028217905092915050565b6200043282620001ad565b67ffffffffffffffff8111156200044e576200044d620001b8565b5b6200045a825462000216565b620004678282856200038c565b600060209050601f8311600181146200049f57600084156200048a578287015190505b62000496858262000409565b86555062000506565b601f198416620004af866200024b565b60005b82811015620004d957848901518255600182019150602085019450602081019050620004b2565b86831015620004f95784890151620004f5601f891682620003e9565b8355505b6001600288020188555050505b505050505050565b611cc1806200051e6000396000f3fe6080604052600436106101095760003560e01c80635a76f25e11610095578063a9059cbb11610064578063a9059cbb146103ae578063d21220a7146103eb578063d5b5665814610416578063dd62ed3e14610434578063fc9331f11461047157610109565b80635a76f25e146102de57806370a08231146103095780637c86688e1461034657806395d89b411461038357610109565b806323b872dd116100dc57806323b872dd146101de578063313ce5671461021b57806336440b7b14610246578063443cb4bc1461028357806351c6590a146102ae57610109565b8063054d50d41461010e57806306fdde031461014b578063095ea7b31461017657806318160ddd146101b3575b600080fd5b34801561011a57600080fd5b506101356004803603810190610130919061141c565b6104ae565b604051610142919061147e565b60405180910390f35b34801561015757600080fd5b5061016061056c565b60405161016d9190611529565b60405180910390f35b34801561018257600080fd5b5061019d600480360381019061019891906115a9565b6105fe565b6040516101aa9190611604565b60405180910390f35b3480156101bf57600080fd5b506101c8610621565b6040516101d5919061147e565b60405180910390f35b3480156101ea57600080fd5b506102056004803603810190610200919061161f565b61062b565b6040516102129190611604565b60405180910390f35b34801561022757600080fd5b5061023061065a565b60405161023d919061168e565b60405180910390f35b34801561025257600080fd5b5061026d600480360381019061026891906116a9565b610663565b60405161027a919061147e565b60405180910390f35b34801561028f57600080fd5b5061029861067b565b6040516102a5919061147e565b60405180910390f35b6102c860048036038101906102c391906116a9565b610681565b6040516102d5919061147e565b60405180910390f35b3480156102ea57600080fd5b506102f361086c565b604051610300919061147e565b60405180910390f35b34801561031557600080fd5b50610330600480360381019061032b91906116d6565b610872565b60405161033d919061147e565b60405180910390f35b34801561035257600080fd5b5061036d600480360381019061036891906116a9565b6108ba565b60405161037a919061147e565b60405180910390f35b34801561038f57600080fd5b506103986108d2565b6040516103a59190611529565b60405180910390f35b3480156103ba57600080fd5b506103d560048036038101906103d091906115a9565b610964565b6040516103e29190611604565b60405180910390f35b3480156103f757600080fd5b50610400610987565b60405161040d9190611762565b60405180910390f35b61041e6109ad565b60405161042b919061147e565b60405180910390f35b34801561044057600080fd5b5061045b6004803603810190610456919061177d565b610a95565b604051610468919061147e565b60405180910390f35b34801561047d57600080fd5b50610498600480360381019061049391906116a9565b610b1c565b6040516104a5919061147e565b60405180910390f35b60008084116104f2576040517f08c379a00000000000000000000000000000000000000000000000000000000081526004016104e990611809565b60405180910390fd5b6000831180156105025750600082115b610541576040517f08c379a000000000000000000000000000000000000000000000000000000000815260040161053890611875565b60405180910390fd5b838361054d91906118c4565b828561055991906118f8565b6105639190611969565b90509392505050565b60606003805461057b906119c9565b80601f01602080910402602001604051908101604052809291908181526020018280546105a7906119c9565b80156105f45780601f106105c9576101008083540402835291602001916105f4565b820191906000526020600020905b8154815290600101906020018083116105d757829003601f168201915b5050505050905090565b600080610609610d2e565b9050610616818585610d36565b600191505092915050565b6000600254905090565b600080610636610d2e565b9050610643858285610d48565b61064e858585610ddc565b60019150509392505050565b60006012905090565b6000610674826006546007546104ae565b9050919050565b60065481565b600080349050600560009054906101000a900473ffffffffffffffffffffffffffffffffffffffff1673ffffffffffffffffffffffffffffffffffffffff166323b872dd3330866040518463ffffffff1660e01b81526004016106e693929190611a09565b6020604051808303816000875af1158015610705573d6000803e3d6000fd5b505050506040513d601f19601f820116820180604052508101906107299190611a6c565b506000610734610621565b90506000810361075957610752848361074d91906118f8565b610ed0565b9250610796565b610793600654828461076b91906118f8565b6107759190611969565b600754838761078491906118f8565b61078e9190611969565b610f4a565b92505b600083116107d9576040517f08c379a00000000000000000000000000000000000000000000000000000000081526004016107d090611ae5565b60405180910390fd5b81600660008282546107eb91906118c4565b92505081905550836007600082825461080491906118c4565b925050819055506108153384610f63565b3373ffffffffffffffffffffffffffffffffffffffff167f4c209b5fc8ad50758f13e2e1088ba56a560dff690a1c6fef26394f4c03821c4f838660405161085d929190611b05565b60405180910390a25050919050565b60075481565b60008060008373ffffffffffffffffffffffffffffffffffffffff1673ffffffffffffffffffffffffffffffffffffffff168152602001908152602001600020549050919050565b60006108cb826007546006546104ae565b9050919050565b6060600480546108e1906119c9565b80601f016020809104026020016040519081016040528092919081815260200182805461090d906119c9565b801561095a5780601f1061092f5761010080835404028352916020019161095a565b820191906000526020600020905b81548152906001019060200180831161093d57829003601f168201915b5050505050905090565b60008061096f610d2e565b905061097c818585610ddc565b600191505092915050565b600560009054906101000a900473ffffffffffffffffffffffffffffffffffffffff1681565b6000803490506109bc81610663565b9150600560009054906101000a900473ffffffffffffffffffffffffffffffffffffffff1673ffffffffffffffffffffffffffffffffffffffff1663a9059cbb33846040518363ffffffff1660e01b8152600401610a1b929190611b2e565b6020604051808303816000875af1158015610a3a573d6000803e3d6000fd5b505050506040513d601f19601f82011682018060405250810190610a5e9190611a6c565b508060066000828254610a7191906118c4565b925050819055508160076000828254610a8a9190611b57565b925050819055505090565b6000600160008473ffffffffffffffffffffffffffffffffffffffff1673ffffffffffffffffffffffffffffffffffffffff16815260200190815260200160002060008373ffffffffffffffffffffffffffffffffffffffff1673ffffffffffffffffffffffffffffffffffffffff16815260200190815260200160002054905092915050565b6000610b27826108ba565b905060003390508073ffffffffffffffffffffffffffffffffffffffff166108fc839081150290604051600060405180830381858888f19350505050158015610b74573d6000803e3d6000fd5b5082600560009054906101000a900473ffffffffffffffffffffffffffffffffffffffff1673ffffffffffffffffffffffffffffffffffffffff166370a08231336040518263ffffffff1660e01b8152600401610bd19190611b8b565b602060405180830381865afa158015610bee573d6000803e3d6000fd5b505050506040513d601f19601f82011682018060405250810190610c129190611bbb565b1015610c53576040517f08c379a0000000000000000000000000000000000000000000000000000000008152600401610c4a90611c34565b60405180910390fd5b600560009054906101000a900473ffffffffffffffffffffffffffffffffffffffff1673ffffffffffffffffffffffffffffffffffffffff166323b872dd3330866040518463ffffffff1660e01b8152600401610cb293929190611a09565b6020604051808303816000875af1158015610cd1573d6000803e3d6000fd5b505050506040513d601f19601f82011682018060405250810190610cf59190611a6c565b508160066000828254610d089190611b57565b925050819055508260076000828254610d2191906118c4565b9250508190555050919050565b600033905090565b610d438383836001610fe5565b505050565b6000610d548484610a95565b90507fffffffffffffffffffffffffffffffffffffffffffffffffffffffffffffffff8114610dd65781811015610dc6578281836040517ffb8f41b2000000000000000000000000000000000000000000000000000000008152600401610dbd93929190611c54565b60405180910390fd5b610dd584848484036000610fe5565b5b50505050565b600073ffffffffffffffffffffffffffffffffffffffff168373ffffffffffffffffffffffffffffffffffffffff1603610e4e5760006040517f96c6fd1e000000000000000000000000000000000000000000000000000000008152600401610e459190611b8b565b60405180910390fd5b600073ffffffffffffffffffffffffffffffffffffffff168273ffffffffffffffffffffffffffffffffffffffff1603610ec05760006040517fec442f05000000000000000000000000000000000000000000000000000000008152600401610eb79190611b8b565b60405180910390fd5b610ecb8383836111bc565b505050565b60006003821115610f375781905060006001600284610eef9190611969565b610ef991906118c4565b90505b81811015610f31578091506002818285610f169190611969565b610f2091906118c4565b610f2a9190611969565b9050610efc565b50610f45565b60008214610f4457600190505b5b919050565b6000818310610f595781610f5b565b825b905092915050565b600073ffffffffffffffffffffffffffffffffffffffff168273ffffffffffffffffffffffffffffffffffffffff1603610fd55760006040517fec442f05000000000000000000000000000000000000000000000000000000008152600401610fcc9190611b8b565b60405180910390fd5b610fe1600083836111bc565b5050565b600073ffffffffffffffffffffffffffffffffffffffff168473ffffffffffffffffffffffffffffffffffffffff16036110575760006040517fe602df0500000000000000000000000000000000000000000000000000000000815260040161104e9190611b8b565b60405180910390fd5b600073ffffffffffffffffffffffffffffffffffffffff168373ffffffffffffffffffffffffffffffffffffffff16036110c95760006040517f94280d620000000000000000000000000000000000000000000000000000000081526004016110c09190611b8b565b60405180910390fd5b81600160008673ffffffffffffffffffffffffffffffffffffffff1673ffffffffffffffffffffffffffffffffffffffff16815260200190815260200160002060008573ffffffffffffffffffffffffffffffffffffffff1673ffffffffffffffffffffffffffffffffffffffff1681526020019081526020016000208190555080156111b6578273ffffffffffffffffffffffffffffffffffffffff168473ffffffffffffffffffffffffffffffffffffffff167f8c5be1e5ebec7d5bd14f71427d1e84f3dd0314c0f7b2291e5b200ac8c7c3b925846040516111ad919061147e565b60405180910390a35b50505050565b600073ffffffffffffffffffffffffffffffffffffffff168373ffffffffffffffffffffffffffffffffffffffff160361120e57806002600082825461120291906118c4565b925050819055506112e1565b60008060008573ffffffffffffffffffffffffffffffffffffffff1673ffffffffffffffffffffffffffffffffffffffff1681526020019081526020016000205490508181101561129a578381836040517fe450d38c00000000000000000000000000000000000000000000000000000000815260040161129193929190611c54565b60405180910390fd5b8181036000808673ffffffffffffffffffffffffffffffffffffffff1673ffffffffffffffffffffffffffffffffffffffff16815260200190815260200160002081905550505b600073ffffffffffffffffffffffffffffffffffffffff168273ffffffffffffffffffffffffffffffffffffffff160361132a5780600260008282540392505081905550611377565b806000808473ffffffffffffffffffffffffffffffffffffffff1673ffffffffffffffffffffffffffffffffffffffff168152602001908152602001600020600082825401925050819055505b8173ffffffffffffffffffffffffffffffffffffffff168373ffffffffffffffffffffffffffffffffffffffff167fddf252ad1be2c89b69c2b068fc378daa952ba7f163c4a11628f55a4df523b3ef836040516113d4919061147e565b60405180910390a3505050565b600080fd5b6000819050919050565b6113f9816113e6565b811461140457600080fd5b50565b600081359050611416816113f0565b92915050565b600080600060608486031215611435576114346113e1565b5b600061144386828701611407565b935050602061145486828701611407565b925050604061146586828701611407565b9150509250925092565b611478816113e6565b82525050565b6000602082019050611493600083018461146f565b92915050565b600081519050919050565b600082825260208201905092915050565b60005b838110156114d35780820151818401526020810190506114b8565b60008484015250505050565b6000601f19601f8301169050919050565b60006114fb82611499565b61150581856114a4565b93506115158185602086016114b5565b61151e816114df565b840191505092915050565b6000602082019050818103600083015261154381846114f0565b905092915050565b600073ffffffffffffffffffffffffffffffffffffffff82169050919050565b60006115768261154b565b9050919050565b6115868161156b565b811461159157600080fd5b50565b6000813590506115a38161157d565b92915050565b600080604083850312156115c0576115bf6113e1565b5b60006115ce85828601611594565b92505060206115df85828601611407565b9150509250929050565b60008115159050919050565b6115fe816115e9565b82525050565b600060208201905061161960008301846115f5565b92915050565b600080600060608486031215611638576116376113e1565b5b600061164686828701611594565b935050602061165786828701611594565b925050604061166886828701611407565b9150509250925092565b600060ff82169050919050565b61168881611672565b82525050565b60006020820190506116a3600083018461167f565b92915050565b6000602082840312156116bf576116be6113e1565b5b60006116cd84828501611407565b91505092915050565b6000602082840312156116ec576116eb6113e1565b5b60006116fa84828501611594565b91505092915050565b6000819050919050565b600061172861172361171e8461154b565b611703565b61154b565b9050919050565b600061173a8261170d565b9050919050565b600061174c8261172f565b9050919050565b61175c81611741565b82525050565b60006020820190506117776000830184611753565b92915050565b60008060408385031215611794576117936113e1565b5b60006117a285828601611594565b92505060206117b385828601611594565b9150509250929050565b7f494e53554646494349454e545f414d4f554e5400000000000000000000000000600082015250565b60006117f36013836114a4565b91506117fe826117bd565b602082019050919050565b60006020820190508181036000830152611822816117e6565b9050919050565b7f494e53554646494349454e545f4c495155494449545900000000000000000000600082015250565b600061185f6016836114a4565b915061186a82611829565b602082019050919050565b6000602082019050818103600083015261188e81611852565b9050919050565b7f4e487b7100000000000000000000000000000000000000000000000000000000600052601160045260246000fd5b60006118cf826113e6565b91506118da836113e6565b92508282019050808211156118f2576118f1611895565b5b92915050565b6000611903826113e6565b915061190e836113e6565b925082820261191c816113e6565b9150828204841483151761193357611932611895565b5b5092915050565b7f4e487b7100000000000000000000000000000000000000000000000000000000600052601260045260246000fd5b6000611974826113e6565b915061197f836113e6565b92508261198f5761198e61193a565b5b828204905092915050565b7f4e487b7100000000000000000000000000000000000000000000000000000000600052602260045260246000fd5b600060028204905060018216806119e157607f821691505b6020821081036119f4576119f361199a565b5b50919050565b611a038161156b565b82525050565b6000606082019050611a1e60008301866119fa565b611a2b60208301856119fa565b611a38604083018461146f565b949350505050565b611a49816115e9565b8114611a5457600080fd5b50565b600081519050611a6681611a40565b92915050565b600060208284031215611a8257611a816113e1565b5b6000611a9084828501611a57565b91505092915050565b7f494e53554646494349454e545f4c49515549444954595f4d494e544544000000600082015250565b6000611acf601d836114a4565b9150611ada82611a99565b602082019050919050565b60006020820190508181036000830152611afe81611ac2565b9050919050565b6000604082019050611b1a600083018561146f565b611b27602083018461146f565b9392505050565b6000604082019050611b4360008301856119fa565b611b50602083018461146f565b9392505050565b6000611b62826113e6565b9150611b6d836113e6565b9250828203905081811115611b8557611b84611895565b5b92915050565b6000602082019050611ba060008301846119fa565b92915050565b600081519050611bb5816113f0565b92915050565b600060208284031215611bd157611bd06113e1565b5b6000611bdf84828501611ba6565b91505092915050565b7f494e53554646494349454e545f42414c414e4345000000000000000000000000600082015250565b6000611c1e6014836114a4565b9150611c2982611be8565b602082019050919050565b60006020820190508181036000830152611c4d81611c11565b9050919050565b6000606082019050611c6960008301866119fa565b611c76602083018561146f565b611c83604083018461146f565b94935050505056fea26469706673582212204a8dc94151af9ab7bb1f750f702073a8a34a89124b92fc886e1208fe31c842d264736f6c63430008140033",
  "linkReferences": {},
  "deployedLinkReferences": {}
}